:020000040000FA
:1000000000008A110A12A2280130FF0000308A1174
:100010000A126B218A110A1200308A110A123E213B
:100020008A110A128A110A12A3218A110A120030B7
:100030008A110A123E218A110A1201308A110A120B
:100040003E218A110A120130FF0000308A110A1283
:100050006B218A110A120130FF0001308A110A1245
:100060006B218A110A12E830FF0003308A110A124C
:1000700077208A110A1200308A110A123E218A1151
:100080000A1201308A110A123E218A110A12003026
:10009000FF0000308A110A126B218A110A12003007
:1000A000FF0001308A110A126B218A110A12E8300E
:1000B000FF0003308A110A1277208A110A120030D9
:1000C000FF000A308A110A126B218A110A120630C7
:1000D000FF0001308A110A126B218A110A120530C1
:1000E0008A110A123E218A110A1217280800831267
:1000F0000313AD007F08AC00AE01AF01793083126D
:100100000313B000B101FF30831203133007B200B4
:10011000FF30B30031080318310FB3073208B000C5
:100120003308B10032083304031D8328AE0A0319D3
:10013000AF0A2F082D02031D9F282E082C0203183A
:100140007E2808000130FE000230FF0080308A1156
:100150000A12E0218A110A1283120313A1007F08F8
:10016000A0000330A2000230A30083120313200872
:10017000A4002108A500FF30A007031CA103240848
:10018000250403193A2904302207A400A501A50D6E
:100190002308A5072408FE002508FF0080308A11E7
:1001A0000A12E0218A110A1283120313A7007F08A2
:1001B000A6002208FE002308FF0080308A110A12E0
:1001C000E0218A110A1283120313A900A5007F08F7
:1001D000A800A40002302207A400A501A50D230851
:1001E000A5072408FE002508FF0080308A110A12A6
:1001F000E0218A110A1283120313A500AB007F08C5
:10020000A400AA00831203132608AA002708AB0043
:10021000FF30A607031CA7032A082B040319332960
:100220002808FE002908FF0080308A110A12CD211B
:100230008A110A1283120313AA00240883120313DB
:100240008400831383120313251883172A0883124B
:100250000313800083120313A80A0319A90AA40A2E
:100260000319A50A0229063083120313A2070318F3
:10027000A30AB5288A110A1204280800831203135E
:10028000B700B801370803194A293708013A03199A
:1002900057296129203083120313060583120313A3
:1002A000B700370E0F39B8000310B80C61291030B1
:1002B00083120313060583120313B700370E0F3999
:1002C000B800003083120313380403196929013080
:1002D0006A290030080083120313B5007F08B600B6
:1002E0003508031978293508013A03198F29A229FD
:1002F00083120313060883120313B500DF3035059C
:1003000083120313860083120313360EF039B500EF
:100310000310B50D3508831203138604A229831236
:100320000313060883120313B500EF30350583125B
:100330000313860083120313360EF039B5008312BF
:10034000031386040800831603138801060883122A
:100350000313B400DF303405831603138600060848
:1003600083120313B400EF303405831603138600A1
:100370000030FF0000308A110A126B218A110A1224
:100380000030FF0001308A110A126B218A110A1213
:100390007F308312031388000800003A0319D42920
:1003A000803A0319DB2900347E08840083137F1808
:1003B0008317000808007F088A007E088200080072
:1003C000003A0319E829803A0319F229FF010034A1
:1003D0007E08840083137F1883170008FF00840AB7
:1003E000000808008A110A12DB21FD00FE0FFF033E
:1003F000FF0A8A110A12DB21FC007D08FF007C083D
:100400000800013400340934023439340034013432
:040410000034003480
:02400E00323F3F
:00000001FF
