:020000040000FA
:1000000000008A150A120028F200030E8301F10095
:100010000A088A01F000040883160313BB008A1142
:100020000A1249258A110A128A110A12FE278A1118
:100030000A128A110A12DD258A110A128A110A127D
:10004000E1208A110A12831603133A08831203135C
:1000500081000B11831603133B08831203138400E2
:1000600070088A008301710E8300F20E720E09007F
:1000700083120313B8007F08B9007E08BA0039085C
:10008000013A031D49283A08013A031D4928003066
:100090006C28831203133808013A031D54283A08C8
:1000A000031D542801306C280030831203133904D7
:1000B000031D5F283A08031D5F2802306C280030BA
:1000C000831203133804031D6B283A08013A031DF9
:1000D0006B2803306C280030080083120313B20031
:1000E0000830FF0032088A150A1271218A110A129B
:1000F00083120313B300B40133083B3EB200003057
:10010000B50000300318340FB5070430B2070318E8
:10011000B50A320883120313840083138312031376
:100120003518831783120313000883120313B300D7
:1001300083120313840A000883120313B40083128A
:100140000313840A000883120313B60083120313F7
:10015000840A000883120313B7003308FD00340833
:10016000FE003608FF003708080083120313AE00B4
:100170000830FF002E088A150A1271218A110A120E
:1001800083120313AF00B0012F083B3EAE000030D6
:10019000B10000300318300FB1070330AE07031869
:1001A000B10A2E08831203138400831383120313EE
:1001B0003118831783120313000883120313AF004F
:1001C0000800143083120313D3070318D40A53080A
:1001D000143A031DEE285408003A031D0F2B831216
:1001E0000313D301D40183120313A5018312031354
:1001F000060883120313A600A7012508A800A90179
:10020000A80A0319A90A2708AB002608AA0028088B
:10021000A81B1529003C03191F2983120313AA0DDB
:10022000AB0D013E031C0D291F290310831203137C
:10023000AB1B0314AB0CAA0C013E031C1529831243
:1002400003132A082B04031D162A0830FF00250873
:100250008A150A1271218A110A1283120313A60049
:10026000A70126083B3EA60000300318270F003EDA
:10027000A70004302607A800A901A90D2708A9078F
:10028000280883120313840083138312031329188D
:10029000831783120313000883120313AA00831227
:1002A0000313840A000883120313AB0083120313A1
:1002B000840A000883120313AC0083120313840A18
:1002C000000883120313AD001430AA070318AB0A09
:1002D0000319AC0A0319AD0A28088312031384001A
:1002E000831383120313291883172A088312031315
:1002F0008000840A831203132B08831203138000E7
:10030000840A831203132C08831203138000840AC7
:10031000831203132D08831203138000013083120C
:1003200003132607A800A901A90D2708A907280873
:100330008312031384008313831203132918831772
:1003400083120313000883120313AA0026088312E2
:1003500003138400831383120313271883172A08B7
:100360008312031380000230831203132607AB00AD
:10037000AC01AC0D2708AC072B08831203138400D3
:100380008313831203132C1883178312031300089B
:1003900083120313AD002808831203138400831310
:1003A00083120313291883172D0883120313800067
:1003B000831203132B088312031384008313831205
:1003C00003132C18831700308312031380000330AB
:1003D00083120313A6070318A70A2B08831203131B
:1003E00084008313831203132C18831783120313BF
:1003F000000883120313A800FE002D08FF002A083E
:100400008A110A1238208A110A1283120313A800D3
:1004100026088312031384008313831203132718FF
:1004200083172808831203138000082B0830FF006D
:100430008312031325088A150A1271218A110A12E0
:1004400083120313A600A70126083B3EA600003036
:100450000318270F003EA70004302607A800A901B3
:10046000A90D2708A9072808831203138400831302
:1004700083120313291883178312031300088312AE
:100480000313AA0083120313840A000883120313C0
:10049000AB0083120313840A000883120313AC0019
:1004A00083120313840A000883120313AD0014306F
:1004B000AA070318AB0A0319AC0A0319AD0A2808E6
:1004C00083120313840083138312031329188317E1
:1004D0002A08831203138000840A831203132B0853
:1004E000831203138000840A831203132C088312DF
:1004F00003138000840A831203132D08831203134D
:1005000080000130831203132607A800A901A90D5A
:100510002708A90728088312031384008313831272
:10052000031329188317831203130008831203137C
:10053000AA00260883120313840083138312031373
:10054000271883172A0883120313800002308312AE
:1005500003132607AB00AC01AC0D2708AC072B0832
:100560008312031384008313831203132C1883173D
:1005700083120313000883120313AD0028088312AB
:1005800003138400831383120313291883172D0880
:10059000831203138000831203132B0883120313A7
:1005A00084008313831203132C18831701308312E2
:1005B00003138000033083120313A6070318A70A4E
:1005C0002B088312031384008313831203132C1844
:1005D000831783120313000883120313A800FE007D
:1005E0002D08FF002A088A110A1238208A110A12DF
:1005F00083120313A80026088312031384008313B5
:10060000831203132718831728088312031380000B
:1006100083120313A50A03302502031CF6280800E1
:1006200083160313060883120313A000F730200576
:100630008316031386008615060883120313A00091
:10064000FB30200583160313860006150608831267
:100650000313A000FD3020058316031386008614C3
:1006600083120313A0010830FF0083120313200834
:100670008A150A1271218A110A1283120313A1002A
:10068000A20121083B3EA10000300318220F003ECA
:10069000A20004302107A300A401A40D2208A4078E
:1006A0002308831203138400831383120313241873
:1006B00083170030831203138000840A0030800007
:1006C000840A00308000840A0030800003308312E6
:1006D0000313A1070318A20A21088312031384003D
:1006E000831383120313221883170030831203131A
:1006F000800083120313A00A03302002031C332B53
:10070000080083120313E5008A110A12B5208A112A
:100710000A1283120313E600033A031DBA2B65087D
:100720008A110A126D208A110A1283120313E9003A
:100730007F08E8007E08E7007D08E60000306902D7
:10074000031DAC2B00306802031DAC2B0030670288
:10075000031DAC2BC8306602031CBA2B8312031393
:100760006A0883120313EB008312031365088312D4
:100770000313EA00080083120313E0007F08E1007E
:100780008A110A12B5208A110A1283120313E20099
:10079000033A031DF52B61088A110A126D208A1194
:1007A0000A1283120313E4007F08E3007E08E200CC
:1007B0007D08E10000306402031DE82B0030630275
:1007C000031DE82B00306202031DE82BC8306102D4
:1007D000031CF52B831203136B0883120313EA0027
:1007E000033083120313EB002B2C831203136008D6
:1007F0008A110A12B5208A110A1283120313E1002A
:10080000013A031D2B2C60088A110A126D208A11EF
:100810000A1283120313E3007F08E2007E08E1005E
:100820007D08E00000306302031D202C00306202CE
:10083000031D202C00306102031D202C0A306002B1
:10084000031C2B2C831203136B0883120313EA007F
:1008500083120313EB01080083120313DB007F08EC
:10086000DC008A110A12B5208A110A1283120313BE
:10087000DD00033A031D662C5C088A110A126D2004
:100880008A110A1283120313DF007F08DE007E083C
:10089000DD007D08DC0000305F02031D592C0030B4
:1008A0005E02031D592C00305D02031D592CC83017
:1008B0005C02031C662C831203136B088312031360
:1008C000EA00033083120313EB009C2C8312031302
:1008D0005B088A110A12B5208A110A1283120313C7
:1008E000DC00013A031D9C2C5B088A110A126D2062
:1008F0008A110A1283120313DE007F08DD007E08CE
:10090000DC007D08DB0000305E02031D912C00300E
:100910005D02031D912C00305C02031D912C0A30F6
:100920005B02031C9C2C831203136B0883120313BA
:10093000EA0083120313EB01080083120313D500AE
:100940007F08D6007E08D7008A110A12B5208A11C6
:100950000A1283120313D800033A031DD92C570837
:100960008A110A126D208A110A1283120313DA0007
:100970007F08D9007E08D8007D08D70000305A02D1
:10098000031DCC2C00305902031DCC2C0030580222
:10099000031DCC2CC8305702031CD92C831203131F
:1009A0006B0883120313EA00033083120313EB0076
:1009B000482D8312031355088A110A12B5208A1193
:1009C0000A1283120313D700013A031D112D550893
:1009D0008A110A126D208A110A1283120313D90098
:1009E0007F08D8007E08D7007D08D5000030590266
:1009F000031D042D00305802031D042D0030570242
:100A0000031D042D0A305502031C112D83120313FC
:100A10006B0883120313EA00013083120313EB0007
:100A2000482D8312031356088A110A12B5208A1121
:100A30000A1283120313D500013A031D482D5608EC
:100A40008A110A126D208A110A1283120313D80028
:100A50007F08D7007E08D6007D08D50000305802F8
:100A6000031D3C2D00305702031D3C2D0030560263
:100A7000031D3C2D0A305502031C482D831203131D
:100A80006B0883120313EA00023083120313EB0096
:100A90000800143083120313EC070318ED0A6C08E6
:100AA000143A031D562D6D08003A031DD12D8312F3
:100AB0000313EC01ED01831203136B08033A031DCA
:100AC000642D02308123862D831203136B08013AB3
:100AD000031D6F2D0230FF0001302C24862D831260
:100AE00003136B08023A031D7A2D0230FF00003019
:100AF000BB23862D0030831203136B04031D862D48
:100B00000230FE000130FF0000309D2483120313E9
:100B10006B08033A031D992D01308A110A12FD2733
:100B20008A110A1200308A110A12D9258A110A1272
:100B3000D12D831203136B08013A031DAC2D003035
:100B40008A110A12FD278A110A1201308A110A122B
:100B5000D9258A110A12D12D831203136B08023A88
:100B6000031DBF2D00308A110A12FD278A110A12B7
:100B700002308A110A12D9258A110A12D12D0030A9
:100B8000831203136B04031DD12D00308A110A1246
:100B9000FD278A110A1200308A110A12D9258A11FA
:100BA0000A12080083120313EA0183120313EB01F4
:100BB000080083160313AE000800831603132E08E3
:100BC000013A031D6D2E143083160313AF0703186B
:100BD000B00A00308A150A129C208A110A12831664
:100BE0000313AC00013A031D2B2E003083160313B0
:100BF0003002031DFD2DC9302F0203182B2E0130AA
:100C0000FF0000308A150A12AB208A110A12143034
:100C1000831603132F0783160313AC00AD01AD0D2C
:100C200083160313300883160313AD0700302D021B
:100C3000031D1C2EC8302C02031CAC2F0030FF00FB
:100C400000308A150A12AB208A110A128316031388
:100C5000AF01B001AC2F00308A150A129C208A1116
:100C60000A1283160313AC002C08031DAC2F0130AD
:100C7000831603133002031D3F2E2D302F0203185D
:100C8000AC2F0030FF0000308A150A12AB208A1109
:100C90000A121430831603132F0783160313AC00B4
:100CA000AD01AD0D83160313300883160313AD0792
:100CB00001302D02031D5E2E2C302C02031CAC2FA4
:100CC0000130FF0000308A150A12AB208A110A1287
:100CD00083160313AF01B001AC2F831603132E0844
:100CE000023A031DFD2E143083160313AF070318B9
:100CF000B00A01308A150A129C208A110A12831642
:100D00000313AC00013A031DBB2E003083160313FE
:100D10003002031D8D2EC9302F020318BB2E013067
:100D2000FF0001308A150A12AB208A110A12143012
:100D3000831603132F0783160313AC00AD01AD0D0B
:100D400083160313300883160313AD0700302D02FA
:100D5000031DAC2EC8302C02031CAC2F0030FF004A
:100D600001308A150A12AB208A110A128316031366
:100D7000AF01B001AC2F01308A150A129C208A11F4
:100D80000A1283160313AC002C08031DAC2F01308C
:100D9000831603133002031DCF2E2D302F020318AC
:100DA000AC2F0030FF0001308A150A12AB208A11E7
:100DB0000A121430831603132F0783160313AC0093
:100DC000AD01AD0D83160313300883160313AD0771
:100DD00001302D02031DEE2E2C302C02031CAC2FF3
:100DE0000130FF0001308A150A12AB208A110A1265
:100DF00083160313AF01B001AC2F00308316031329
:100E00002E04031DAC2F143083160313AF070318F1
:100E1000B00A00308A150A129C208A110A12831621
:100E20000313AC00013A031D5B2F0030831603133C
:100E30003002031D1D2FC9302F0203185B2F013014
:100E4000FF0000308A150A12AB208A110A12013005
:100E5000FF0001308A150A12AB208A110A121430E1
:100E6000831603132F0783160313AC00AD01AD0DDA
:100E700083160313300883160313AD0700302D02C9
:100E8000031D442FC8302C02031CAC2F0030FF0080
:100E900000308A150A12AB208A110A120030FF00B6
:100EA00001308A150A12AB208A110A128316031325
:100EB000AF01B001AC2F00308A150A129C208A11B4
:100EC0000A1283160313AC002C08031DAC2F01304B
:100ED000831603133002031D6F2F2D302F020318CA
:100EE000AC2F0030FF0000308A150A12AB208A11A7
:100EF0000A120030FF0001308A150A12AB208A1155
:100F00000A121430831603132F0783160313AC0041
:100F1000AD01AD0D83160313300883160313AD071F
:100F200001302D02031D962F2C302C02031CAC2FF8
:100F30000130FF0000308A150A12AB208A110A1214
:100F40000130FF0001308A150A12AB208A110A1203
:100F500083160313AF01B001080083160313AE011B
:100F600083160313AF01B001080083120313EF01CE
:100F700083160313811EBF2F83120313EF0A8312FC
:100F800003136F08013A031DC62F63000800831284
:100F90000313EE008316031381110114811401154C
:100FA0000830FF00831203136E088A150A1271219C
:100FB0008A110A1283120313EE006E0983160313BB
:100FC000BA00BA0A3A088312031381000B11831680
:100FD00003138112831203138B168B17080002343C
:100FE000003492340934BA34003401340034933478
:100FF0000934BC340034013400340800080008000F
:10100000EF30FE000730FF0080308A150A122A21D7
:101010008A150A1283160313A1007F08A000F1307D
:10102000A2000730A300831603132008A4002108A0
:10103000A500FF30A007031CA10324082504031901
:10104000982804302207A400A501A50D2308A507B0
:101050002408FE002508FF0080308A150A122A2184
:101060008A150A1283160313A7007F08A600220818
:10107000FE002308FF0080308A150A122A218A15F3
:101080000A1283160313A900A5007F08A800A40074
:1010900002302207A400A501A50D2308A5072408F6
:1010A000FE002508FF0080308A150A122A218A15C1
:1010B0000A1283160313A500AB007F08A400AA0040
:1010C000831603132608AA002708AB00FF30A607E3
:1010D000031CA7032A082B04031991282808FE00E3
:1010E0002908FF0080308A150A1217218A150A1272
:1010F00083160313AA0024088312031384008313A6
:1011000083160313251883172A08831203138000FC
:1011100083160313A80A0319A90AA40A0319A50A26
:101120006028063083160313A2070318A30A1328A6
:101130008A150A124B29080083160313B9003908CF
:10114000031DA4280530AA28831603133908013A81
:1011500003190430080083160313B7007F08B80092
:1011600037080319B8283708013A0319D228EB28A1
:1011700083120313060883160313B700DF30370505
:101180008312031386008616831603133808031D83
:10119000CD28831203138801EB287F3083120313B9
:1011A0008800EB2883120313060883160313B70085
:1011B000EF303705831203138600061683160313D8
:1011C0003808031DE728831203138801EB287F30BA
:1011D000831203138800080083160313060883167E
:1011E0000313B600DF3036058316031386000608A6
:1011F00083160313B600EF303605831603138600FB
:10120000880183120313060883160313B600DF3028
:101210003605831203138600060883160313B600EF
:10122000EF30360583120313860088010800003A68
:1012300003191E29803A0319252900347E088400E9
:1012400083137F188317000808007F088A007E0830
:1012500082000800003A03193229803A03193C2918
:10126000FF0100347E08840083137F188317000871
:10127000FF00840A000808008A150A122521FD00D3
:10128000FE0FFF03FF0A8A150A122521FC007D08C4
:10129000FF007C0808008A110A1210238A150A121E
:1012A0008A150A12EC208A150A128A110A12FF27DF
:1012B0008A150A128A110A12AD278A150A128A1192
:1012C0000A12D2258A150A1214308A110A12C72767
:1012D0008A150A128A110A12B5278A150A126A2972
:1012E000080083160313B1007F08B200B301083071
:1012F000B40083160313311C7F293208B307831609
:1013000003133108B5000310350CB1000310320D82
:10131000B500B2003403B500B4003508031D7929C7
:0813200033080800003400341A
:02400E00323F3F
:00000001FF
